:020000040800F2
:10000000983D002085020008034400088539000857
:1000100001440008BD1C0008554E00080000000007
:10002000000000000000000000000000ED010008DA
:10003000311F00080000000031020008014D0008D7
:100040009F0200089F0200089F020008214C000840
:100050009F0200089F0200089F0200089F020008FC
:100060009F0200089F0200089F0200089F020008EC
:100070009F0200089F0200089F0200089F020008DC
:100080009F0200089F0200089F0200089F020008CC
:100090009F0200089F0200089F020008331F00080B
:1000A0009F0200089F0200089F0200089F020008AC
:1000B0009F0200089F0200089F0200089F0200089C
:1000C0009F0200089F0200089F0200089F0200088C
:1000D0009F0200089F0200089F0200089F0200087C
:1000E0009F020008A94A00089F02000800F002F8D9
:1000F00000F06DF80AA090E8000C82448344AAF155
:100100000107DA4501D100F062F8AFF2090EBAE852
:100110000F0013F0010F18BFFB1A43F0010318473B
:10012000C07B0000E07B00000A444FF0000C10F898
:10013000013B13F0070408BF10F8014B1D1108BF65
:1001400010F8015B641E05D010F8016B641E01F805
:10015000016BF9D113F0080F1EBF10F8014BAD1C55
:100160000C1B09D16D1E58BF01F801CBFAD505E073
:1001700014F8016B01F8016B6D1EF9D59142D6D3CD
:10018000704700000023002400250026103A28BFF5
:1001900078C1FBD8520728BF30C148BF0B607047F9
:1001A000662907F02880642900F0FE80732900F09A
:1001B000E284002070471FB500F048FD04000020D5
:1001C000002106F0ABFEE0601FBD10B510BD00F0D1
:1001D00041FE1146FFF7EFFF04F08EFE00F05FFED8
:1001E00003B4FFF7F2FF03BC04F060FE224B196872
:1001F0000868B0E8F00F80F30988BFF36F8F4FF005
:10020000000080F311884EF00D0E704700000000D2
:1002100006480068006880F3088862B661B6BFF3DC
:100220004F8FBFF36F8F00DF00BF00BF08ED00E00E
:10023000EFF30980BFF36F8F0F4B1A6820E9F00FBF
:10024000106008B54FF0500080F31188BFF34F8F56
:10025000BFF36F8F05F0A6FF4FF0000080F3118809
:10026000BDE8084019680868B0E8F00F80F3098815
:10027000BFF36F8F704700BFAC000020EFF3058025
:10028000704700000948804709480047FEE7FEE73D
:10029000FEE7FEE7FEE7FEE7FEE7FEE7FEE7FEE736
:1002A00004480549054A064B70470000994D00086F
:1002B000ED00000898370020983D00209839002074
:1002C00098390020704700000FB4044910B503AA04
:1002D000029800F055FC10BC5DF814FB00000020F3
:1002E0000FB41CB5074B06AA7B44694600900598DD
:1002F00000F017FC0020694600F026FC1CBC5DF8ED
:1003000014FB00005D08000070B5044685690068B4
:10031000C10601D5302600E02026C00707D070BDF9
:10032000D4E9012130469047206A401C20626D1EAE
:10033000F6D570BD70B5044685690078C00707D151
:1003400070BDD4E9012120209047206A401C206222
:100350006D1EF6D570BD70B50C460546012A05D058
:100360002878800600D5EA69002302E0012305E031
:100370005B1C934202D2E05C0028F9D1A869E61820
:10038000C01AA861286A184428622846FFF7BCFFF3
:1003900004E0D5E9012114F8010B9047B442F8D3E9
:1003A0002846FFF7C7FF70BD2DE9F041064600243F
:1003B00010687529314616A510D0AFF300800028CB
:1003C00002DA404213A507E031688A0701D512A579
:1003D00002E0490704D511A5012401E0AFF3008034
:1003E00000210A2206F1240709E0B0FBF2FCB0FB71
:1003F000F2F302FB1C00303078541846491C0028E8
:10040000F3D123462A463046BDE8F04100F01CB93E
:10041000000000002D0000002B0000002000000064
:100420002DE9F05F894604464FF0000ADFF824B159
:10043000FB44C0F820A02046E168884700287DD012
:10044000252806D0D4E901219047206A401C20626B
:10045000F1E700255F462046E168884720280646E8
:1004600007DB312E05D2B81910F8200C08B105436E
:10047000F1E7A80701D525F00405C4F81CA0002762
:10048000C4F818A02A2E09D0304604F008FD38B36D
:1004900004EB8708303EC8F8186019E059F8041BCF
:1004A000204604EB87029161E1688847012F0646E8
:1004B00018D1E069002820DA25F020051DE0D8F8E1
:1004C000180000EB800006EB40003038C8F8180038
:1004D0002046E1688847064604F0E1FC0028EED19A
:1004E000012F0AD02E2E08D12046E16888477F1CB4
:1004F0000646022F45F02005C4DBA069002803DA78
:10050000404245F00105A061E80701D025F0100543
:10051000A6B1A6F14100192802D8203645F400659D
:100520004A463146204625604D46FFF739FE60B108
:10053000012807D0ED1D25F0070000E007E000F1DD
:10054000080978E705F1040975E730467AE7206A7B
:10055000BDE8F09FE4760000032A40F2308010F0FE
:10056000030C00F0158011F8013BBCF1020F62444E
:1005700098BF11F801CB00F8013B38BF11F8013BDF
:10058000A2F1040298BF00F801CB38BF00F8013B8C
:1005900011F0030300F00683083AC0F0088051F818
:1005A000043B083A51F804CBA0E80810F5E7121D07
:1005B0005CBF51F8043B40F8043BAFF30080D20726
:1005C00024BF11F8013B11F801CB48BF11F8012BF2
:1005D00024BF00F8013B00F801CB48BF00F8012B15
:1005E000704702F0FF0343EA032242EA024200F0AE
:1005F0000DBB4FF0000200B51346944696462039D5
:1006000022BFA0E80C50A0E80C50B1F12001BFF4CB
:10061000F7AF090728BFA0E80C5048BF0CC05DF831
:1006200004EB890028BF40F8042B08BF704748BF7F
:1006300020F8022B11F0804F18BF00F8012B7047F3
:1006400070477047704770472DE9F0470D4699464F
:100650009246044600F124080168880604D5E06942
:1006600021F01001216000E00120A84201DD471BBC
:1006700000E00027A1697A1902EB0900081AA061BD
:100680002078C00602D42046FFF73EFE002608E090
:10069000D4E901211AF806009047206A401C761C14
:1006A00020624E45F4DB2078C0060AD52046FFF7CD
:1006B0002BFE06E0D4E9012130209047206A401C3F
:1006C0002062381EA7F10107F4DC07E0D4E901211C
:1006D00018F805009047206A401C2062281EA5F1EA
:1006E0000105F3DC2046FFF725FE2078000602D541
:1006F0000220BDE8F0870120FBE770472DE9FF4F9E
:100700000C461E464FF0FF378BB0D2E90001DDF8F2
:1007100060800A908A46C1F30A5505B93D4600211A
:1007200008464FF00000BAF1000F00F4400005DA6F
:1007300000EB80004FF4400101EA50004FEA90596D
:10074000B9F1010F00DDB9460A9850EA4A000ED00F
:1007500044F61050A5F2FF3545432F14B8F1000FB1
:100760001ED07542291E1EDDC9F100021CE0B8F141
:10077000010F4FF0000001D0302103E0F24305E00B
:100780002154401CB042FBDB3046002200212154A2
:100790000B99C1F80880C1E900200FB0BDE8F08FC7
:1007A000BD1B6D1CDEE74A4600DA694206A800F070
:1007B000D7FA06AB93E8070003AB83E8070050467F
:1007C0000A9900F0B5FB8DE80700A0F500501F382E
:1007D00000900398002D0ADD42F21F014A460844AA
:1007E000002303A90390684600F01EFE09E0A0F56F
:1007F00000504A461F38002303A90390684600F0C2
:1008000028FE8DE807000004000C03D04FF0FF30F5
:10081000410800E01046B8F1000F03D0002200921A
:1008200015461EE0751E05D400F014FA30326255EC
:100830006D1EF9D5B3460122084302D000227F1C69
:1008400004E02078302801D100227F1E002A099779
:1008500084D01DE0112D07DA00F0FCF9303262552A
:100860006D1C50EA0102F5D1084302D00098C8B1CE
:100870000EE00021681E05E0235C625C6354225494
:10088000401E491C8142F7DBAB46A81B401E099065
:10089000002004F80B000B98099AC0F80880C0E902
:1008A000002B7AE711264FF0000857E72DE9F04FAB
:1008B00088460446D21D22F0070191B0D1E900011B
:1008C000CDE90A0104F0C7FA02460B98C00F01D027
:1008D0002D2007E02068810701D52B2002E0202190
:1008E00001EAC000032A099001D0072A05DB03466C
:1008F0004146204600F0F4F90BE12078800601D54E
:10090000E06900E00620B8F1650F814606D0B8F135
:10091000660F18D0B8F1670F70D131E00020B9F13F
:10092000110F009001DB112301E009F101030AAA74
:1009300001A90CA8FFF7E2FEDDE90C70002609F121
:100940000105834647E001204B4600904FF00047E9
:100950000AAA01A90CA8FFF7D1FEDDE90DB00C9998
:100960005D46002610B909F101000D18B9EB05002C
:1009700003D4C0F1FF3609F10105A5EB09002BE016
:10098000B9F1010F01DA4FF001090020B9F1110F9F
:100990000090484601DD112300E003460AAA01A9A0
:1009A0000CA8FFF7ABFEDDE90C704D460026834630
:1009B000207800070AD4AB4500DA5D4601A8012D76
:1009C00004DD411911F8011C302907D04F4502DA26
:1009D00017F1040F04DA012082460FE06D1EEEE7E6
:1009E000002F02DCED1B3E4403E0781CA84200DD32
:1009F0007D1CB81B00F1010A4FF00047207800076A
:100A000003D4AA4501DB4FF0FF3A0021B7F1004FB4
:100A10000DF143088DF8431024D002202B23002F22
:100A200001DA7F422D230A21021EA0F1010000DC21
:100A30005FB197FBF1FC97FBF1F201FB1C7C1746C1
:100A40000CF1300C08F801CDEEE7A8F101000370BD
:100A50002188090501D5452100E06521A0F10108A3
:100A600000F8011C09980FA9A1EB0807FF1D00B1B0
:100A70000120411901EBEA70A1693844081A401EAF
:100A8000A0612078C00602D42046FFF73DFC0998FB
:100A900028B1D4E901219047206A401C20622078C7
:100AA000C00622D52046FFF72FFC1EE0002E04DBF7
:100AB000B34502DD01A8805D00E03020D4E90121CA
:100AC0009047206A401C2062761CAAF101005FEA70
:100AD000000A0AD100F0BAF8C0680168405CD4E9A5
:100AE00001219047206A401C2062281EA5F10105C3
:100AF000DCDC07E0D4E9012118F8010B9047206AFB
:100B0000401C2062381EA7F10107F3DC2046FFF7E6
:100B100011FC032011B041E601694A1C026108780A
:100B2000704700B58FB0CDE901310021059105492D
:100B30007944CDE9031011466846FFF771FC0FB008
:100B400000BD0000E5FFFFFF0A6802F8010B0A6024
:100B5000704710B5436913B1AFF3008001E0FFF7B0
:100B6000FAFB012010BD127800F124010A70002266
:100B70004A700122EDE711684FF0FF32E9E700000B
:100B8000074B70B50D467B44FFF7CBFF0446284664
:100B900000F058F910B14FF0FF3070BD204670BD25
:100BA0005743000010B5203AC0F00B80B1E8185050
:100BB000203AA0E81850B1E81850A0E81850BFF447
:100BC000F5AF5FEA027C24BFB1E81850A0E81850E6
:100BD00044BF18C918C0BDE810405FEA827C24BF3A
:100BE00051F8043B40F8043B08BF7047D20728BFC8
:100BF00031F8023B48BF11F8012B28BF20F8023B17
:100C000048BF00F8012B70474FF000020429C0F0E4
:100C1000128010F0030C3FF4EEACCCF1040CBCF1EC
:100C2000020F18BF00F8012BA8BF20F8022BA1EB80
:100C30000C01FFF7E0BC5FEAC17C24BF00F8012B88
:100C400000F8012B48BF00F8012B7047004870479F
:100C50005837002030B5B0F10A024FEA900E71F11A
:100C600000034EEA817EB0EB0E0061EB91014FEA8A
:100C7000101E4EEA017E10EB0E0041EB11114FEAFF
:100C8000102E4EEA016E10EB0E0041EB11214FEADF
:100C9000104E4EEA014E10EB0E0041EB1141401890
:100CA00041F100014FEAD00040EA41704FEAD10122
:100CB00010EB80054FEA810444EA907444EB010490
:100CC0006D1944EB0404521BA3414FF0000348BFCD
:100CD0000A3200D530BD401C41F1000130BD00009A
:100CE0002DE9F0411F46044603260168072A01F456
:100CF000006004DB08B116A505E016A503E008B105
:100D000015A500E015A521F010002060A069C01E07
:100D1000A0610FB1401EA0612046FFF7F5FA4FB168
:100D2000D4E9012138469047206A401C2062C01C4B
:100D3000206206E0206AFAE7D4E9012115F8010BE8
:100D40009047761EF8D22046FFF7F4FABDE8F0810E
:100D50004E414E006E616E00494E4600696E66005F
:100D60002DE9F047814616468AB0354878440DC8CB
:100D70008DE80D0032487844801C03AC0DC884E82F
:100D80000D0041F69B300844372190FBF1F290FBB7
:100D9000F1F5A5F1800501FB12041B3C02D564426C
:100DA000012000E00020DFF898A080460027FA44E8
:100DB000AAF1BE0A0EE0E0070AD03246684607EB09
:100DC000470101230AEB810100F043FB8DE8070096
:100DD00064107F1C002CEED1194F7F44AE3F19E008
:100DE000E80715D007EB04100DF1180A90E80E0083
:100DF0008AE80E00C068F04201D198190890324686
:100E0000012306A903A800F024FB03AB83E8070035
:100E10006D10641C002DE3D14FF00103324669468A
:100E2000B8F1000F03A802D000F0FEFA01E000F0D4
:100E300010FBC9E90001C9F808200AB0BDE8F08735
:100E4000386E0000007B00F080007047004870475B
:100E5000383700207546FFF7F9FFAE4605006946B2
:100E6000534620F00700854618B020B5FFF718FA62
:100E7000BDE820404FF000064FF000074FF000089B
:100E80004FF0000B21F00701AC46ACE8C009ACE81C
:100E9000C009ACE8C009ACE8C0098D46704710B580
:100EA0000446AFF300802046BDE81040FFF798B934
:100EB0004FF0013C50F8042B51F8043B9A4221D1E9
:100EC000A2EB0C03934313EACC1317D150F8042B75
:100ED00051F8043B9A4215D1A2EB0C03934313EA59
:100EE000CC130BD150F8042B51F8043B9A4209D192
:100EF000A2EB0C03934313EACC13DBD04FF00000BA
:100F0000704700BFD01A01BAB1FA81F101F018019F
:100F100022FA01F0CB40C1F12001DBB2C0B2C01A0D
:100F20002CFA01F3D11A914311EAC311E6D17047AB
:100F30005FEA400C08BF91F0000F4FEA8C234FEAA4
:100F4000C12243EA51514FEA1C5018BF00F5F0404E
:100F50004FEA300018BF41F000415FEA6C5C00F0DE
:100F60002980BCF1FF3F08BF40F080407047130C60
:100F700006BF12044FF0100C4FF0000C130E04BF0C
:100F800012020CF1080C130F04BF12010CF1040C37
:100F9000930F04BF92000CF1020CD30F04BF520058
:100FA0000CF1010C11464FF00002A0F11F00A0EB64
:100FB0000C00704711F0004F08BF704731F000413E
:100FC0003FF4D5AF0B0C06BF09044FF0100C4FF0E7
:100FD000000C0B0E04BF09020CF1080C0B0F04BF30
:100FE00009010CF1040C8B0F04BF89000CF1020CF9
:100FF000CB0F04BF49000CF1010CCCF12003A0EB96
:101000000C0022FA03F302FA0CF241EA030100F1A8
:101010000100704720F07F4C80EA030023F07F47F7
:10102000ACEB070303F57C5300F0004003F1FF0332
:101030002DE980494FEA154B09B44FEA144325EADC
:101040000B4E24EA03480FF2042606EB1327490847
:101050003E785FEA320203FB0667C7F5000707FB2D
:1010600006F64FEA54374FEAD64606F1020607FB6A
:10107000066CCCF1005C4FEA1C472CEA074C07FBDE
:1010800006F40CFB06F504EB15464FEA961634BF42
:1010900000204FF000404FEAD13706FB07FC4FEA33
:1010A0001C4C0CFB0BF7D21B03FB0CF761EB07018D
:1010B0000CFB0EF7B0EB074072EB17420CFB08F786
:1010C00034BFA2EB0742B2EB074261EB17414FEA94
:1010D0000C444FEA910706FB07FC4FEA1C4C0CFB43
:1010E0000BF7B0EBC74072EB573203FB0CF734BF82
:1010F000A2EBC742B2EBC74261EB57310CFB0EF7D4
:10110000B0EBC70072EB57720CFB08F734BFA2EBD1
:10111000C702B2EBC70261EB5771039F4FEA8161CF
:1011200041EA921104EBCC044FEAD1374FEA8262D4
:1011300006FB07FC42EA90124FEA80604FEA1C4C23
:101140000CFB0BF7D21B03FB0CF761EB07010CFB4D
:101150000EF7B0EB074072EB17420CFB08F734BFF9
:10116000A2EB0742B2EB074261EB17414FEA8C5505
:101170004FEA910704EB9C2406FB07FC4FEA1C4C4A
:101180000CFB0BF7B0EBC74072EB573203FB0CF7CD
:1011900034BFA2EBC742B2EBC74261EB57310CFB45
:1011A0000EF7B0EBC70072EB57720CFB08F734BFB9
:1011B000A2EBC702B2EBC70261EB577115EB4C25EE
:1011C0004FEA816141EA92114FEA82624FEAD137D8
:1011D00042EA901206FB07FC44F100044FEA8060EB
:1011E0004FEA1C4C0CFB0BF7D21B03FB0CF761EB1B
:1011F00007010CFB0EF7B0EB074072EB17420CFB3C
:1012000008F734BFA2EB0742B2EB074261EB17418C
:1012100015EB1C154FEA813141EA92414FEA8232C7
:1012200042EA90424FEA80304FEA0C7644F10004E3
:1012300048EA03434EEA0B484FF0000EB2EB080CAD
:1012400071EB030724BF624639464EEB0E0E4FF09A
:10125000000B0018524149414BEB0B0BB2EB080C51
:1012600071EB03077BF1000B24BF624639464EEB5E
:101270000E0E4FF0000B0018524149414BEB0B0B87
:10128000B2EB080C71EB03077BF1000B24BF624645
:1012900039464EEB0E0E51EA020718BF46F0010622
:1012A00016EB0E7655F1000254F1000103D5BDE8AE
:1012B0008901BDE80088BDE88901BDE80048B6198C
:1012C000524141EB0101A3F10103704780807F7E11
:1012D0007D7C7B7A797877767675747372717170AC
:1012E0006F6E6E6D6C6C6B6A6A696868676666655E
:1012F0006464636362616160605F5F5E5E5D5D5CEC
:101300005C5B5B5A5A59595858575756565555555C
:101310005454535352525251515050504F4F4F4EBC
:101320004E4D4D4D4C4C4C4B4B4B4A4A4A4949490A
:10133000484848474747474646464545454444444C
:10134000444343434342424242414141002B9C4675
:1013500030D477002BD01CB54FEA370703B44FF0D9
:1013600010004FF01001BAF1000F06D0BCF1000FD1
:10137000DCBF40F0080040F008014FF000000FBC57
:10138000BDE810400BF1010BBBF1010F08BF5FEA94
:10139000170722BF12F1010211F101014FF00041C4
:1013A00043F1000300F0004043EA00007047F9D326
:1013B0005708D0E746EA064613F1400F4FEA1646B3
:1013C0001FDD13F1200FDFBF16430A460021203333
:1013D0005B42BED0C3F1200746EA064602FA07F791
:1013E0004FEA164646EA0706C3F1200722FA03F23F
:1013F00001FA07F721FA03F14FF0000342EA07026E
:10140000A7E746EA020646EA06464FEA164646EAD5
:101410000106BCBF46EA0646360C4FF000034FF00B
:1014200000024FF0000194E72DE9804C9A46934664
:1014300070B491E8380007C831EA400C48BF34EA7C
:10144000430C03D5FFF7E6FDFFF780FFF0BCBDE8D6
:10145000008C2DE9804C9A46934670B491E8380090
:1014600007C810F0804F08BF13F0804F03D100F081
:1014700005F8FFF76BFFF0BCBDE8008C20F07F475C
:1014800080EA030023F07F4C07EB0C03A3F57C53A9
:1014900000F00040A3F1FE0392F0000F00F0B380D3
:1014A00095F0000F00F077802DE901494FEA1140D7
:1014B0004FEA144621EA004800FB06FC24EA0647EE
:1014C00008FB06F607FB08F800FB07F718EB0648D1
:1014D0004CEB164C4FEA124B18EB07484FEA1546F7
:1014E0004CEB174022EA0B4E0BFB06FC25EA0647A5
:1014F0000EFB06F607FB0EFE0BFB07F71EEB064E78
:101500004CEB164C4FF000061EEB074E4CEB174B06
:1015100018EB0B0840F1000018EB0E0B58EB00081D
:1015200040F100008F1A4FF000013CBFC943661B19
:1015300014BFB5EB040C00213CBFC943F61B4FEAB6
:1015400017444EEA8E0E27EA04454FEA1C4704FB77
:1015500007622CEA074C05FB07F70CFB05F604FBBA
:101560000CFC16EB074642EB174216EB0C4642EB1F
:101570001C421BEB060658EB0202414146EA9E065E
:1015800001D5BDE80189B619524141EB0101A3F132
:101590000103BDE801894FEA14454FEA114724EAE7
:1015A000054621EA074C05FB07F406FB07F70CFB91
:1015B00006F105FB0CFC11EB074144EB17444FEA25
:1015C000124711EB0C4144EB1C4422EA074C05FB8B
:1015D00007F206FB07F70CFB06F605FB0CFC16EB07
:1015E000074642EB174216EB0C4642EB1C456A18C5
:1015F00054F1000148BF7047B619524141EB010157
:10160000A3F10103704795F0000F37D04FEA114264
:101610004FEA144721EA024624EA074C02FB07F18D
:1016200006FB07F70CFB06F402FB0CFC14EB07446B
:1016300041EB17414FEA154714EB0C4441EB1C41B9
:1016400025EA074C02FB07F506FB07F70CFB06F63D
:1016500002FB0CFC16EB074645EB174516EB0C4658
:1016600045EB1C42121951F1000148BF7047B619F1
:10167000524141EB0101A3F1010370474FEA1445C8
:101680004FEA114724EA054621EA074C05FB07F11A
:1016900006FB07F70CFB06F24FF0000605FB0CFCFF
:1016A00012EB074241EB174112EB0C4251EB1C418C
:1016B00048BF7047921841EB0101A3F10103704745
:1016C00030B40023042812D2EFF3108172B6094A15
:1016D000145C14B90123151D2B54145C641C1454A0
:1016E00001B962B6002B02D030BC00F075BD30BC31
:1016F000704700007400002070B50020094C0146BE
:10170000251D21542954401CC0B20428F9D30020BF
:1017100000F012FD032000F00FFD0120A070A87062
:1017200070BD00007400002030B40023042816D2DD
:10173000EFF3108172B60B4A145C4CB1145C641E5A
:101740001454125C22B9074C01230022241D225498
:1017500001B962B6002B02D030BC00F0EDBC30BC49
:1017600070470000740000200C4C0D4F4FF4FA65D8
:101770004FF400564FF0FF38207850B10122314627
:10178000384600F048FF42460021012003F028FDC2
:10179000F2E702F01FFB2A46F6E7000048000020AF
:1017A0000010014008B501240020FFF7BDFF304DB7
:1017B000304E40F2DC572878012805D02E480078BA
:1017C00001282CD024B327E01CB90020FFF7ACFF80
:1017D000012447F230520021012003F001FD801C5A
:1017E000E9D12870044625480121006803F0BEFCB9
:1017F00023480121006803F0B9FC22480121006858
:1018000003F0B4FC20480121006803F0AFFCD2E7EC
:101810000020FFF789FF01244FF4FA7223E0012C26
:1018200008D10020FFF74CFF3A460021012003F0C9
:10183000D7FC002400F0A2FA1448007890B91449AB
:1018400014488A68026009684160306803F024FC2B
:1018500040B904208DF8000000231A46694630681C
:1018600003F050FC3A460021012003F0B9FCA2E746
:101870004800002004000020270000201C00002059
:1018800020000020140000200C000020AB000020ED
:10189000540200207C0000200EB502F0FDFF02F093
:1018A000B1FD02F0D7FE00255B4FDFF87091DFF845
:1018B000708101264FF0FF3A2C463878012802D07B
:1018C000012D0DD01CE02DB901251EB10220FFF71E
:1018D0002BFF002652460021012003F081FCECE79B
:1018E00000251EB90220FFF7EBFE012602F0B0FD35
:1018F00088F8004088F8014088F8034002F0AAFE0A
:1019000048488DF808405346002202A9006803F0B9
:1019100091FB9DF80810404603290ED0C278A2B171
:10192000012A2FD0022A48D0032A58D0042A68D08E
:10193000062A6BD00229C0D102E0C1780029BCD0B0
:1019400088F8034002F05EFD19E0012906D0022963
:10195000B3D198F8000000F02BFBAEE70178491CEA
:10196000C9B20170072903D3047088F8014006E06A
:101970004278131D994202D3521C88F8012002F0CC
:1019800069FE9AE70229DBD0042996D11020CDE91F
:101990000004DFF894B0022319464020DBF8002051
:1019A00002F0EAFF1020CDE90004022304214020C8
:1019B000DBF8042002F0E0FF7FE7012904D00229D0
:1019C0008DD100F03DFB78E78178491CC9B2817068
:1019D000042901D388F8024002F072FE6DE7022963
:1019E00005D00529B9D100BF02F06AFD65E799F875
:1019F000001021B15FF0000189F80010F4E7012127
:101A0000FAE70629A9D102F0CBFE56E70229A4D1B4
:101A100000F09AFA51E70000480000204900002039
:101A200024000020040000207C00002008B5594F4D
:101A3000594CDFF868814FF0FF3900254A460021F4
:101A4000012003F0CDFB0028F8DBC007F6D0387882
:101A5000012810D0142003F0ABFA8DF8005040217B
:101A6000204600F0CBFDB0B32021204600F0C6FD9B
:101A700000285BD07FE04A483D700121006803F0F8
:101A800075FB48480121006803F070FB46480121BE
:101A9000006803F06BFB45480121006803F066FB1A
:101AA00043480121006803F061FB02E00A2003F0D3
:101AB0007FFA2021204600F0A1FD0028F6D0402129
:101AC000204600F09BFD0028F0D0002211460120A6
:101AD00003F086FBB2E7FFE701208DF8000000234A
:101AE0001A466946D8F8000003F00CFB03F06DFAC3
:101AF00006464FF4FA7A10E003F067FA801B50456F
:101B000008D300231A466946D8F8000003F0FAFA11
:101B1000962000E00A2003F04BFA4021204600F016
:101B20006DFD0028E8D08DF800502EE003F04DFA4E
:101B300006464FF4487A0BE003F047FA801B504505
:101B400003D303208DF800000FE00A2003F030FAE1
:101B50002021204600F052FD0028EDD002208DF813
:101B600000000BE00A2003F023FA2021204600F0B9
:101B700045FD0028F6D09DF8000030B100231A463C
:101B80006946D8F8000003F0BDFA142003F010FAFB
:101B90009BE70000480000200008014004000020EE
:101BA0001C0000201800002020000020140000204D
:101BB0000C00002088B0002402F0A4F90120FFF7F7
:101BC0007FFD254E254D3078012805D0244800782A
:101BD000032810D044B10BE01CB90120FFF7A4FD8D
:101BE00001244FF0FF3231E00120FFF79DFD012479
:101BF0004FF4FA722AE0012C03D10120FFF760FDB7
:101C0000002407A906A8CDE9000105AB04AA03A991
:101C100002A802F0F7F913480299016003994160A4
:101C2000049981600599C160069901610799416134
:101C3000286803F031FA40B905208DF80000002330
:101C40001A466946286803F05DFA32220021012015
:101C500003F0C6FAB7E700004800002004000020A7
:101C6000270000203C02002008B5114D114E124CF7
:101C70004FF0FF3806274FF4FA792878012803D06F
:101C80003078042802D00DE042460CE0206803F0D2
:101C900003FA38B98DF8007000231A4669462068A7
:101CA00003F030FA4A460021012003F099FAE4E7F4
:101CB000480000202700002004000020FEE700006C
:101CC0007CB500244FF01003009440B11AA2032108
:101CD000192002F08BFE1C49012008707CBD1BA25C
:101CE0000221102002F082FE1025CDE900540223CB
:101CF00000221946402002F03FFE10234322022119
:101D00005520009402F0EAFD102312A20421184687
:101D1000009402F06BFECDE900540223002204215E
:101D2000402002F029FE1023252204215520009492
:101D300002F0D4FDCFE700004C6F7720506F77653D
:101D4000722E2E2E000000002700002054656D70BA
:101D50003A20000048756D693A20000000224FF4D7
:101D60000051014800F057BC000C01400122510312
:101D7000014800F050BC0000000C01402DE9F04F7C
:101D80004FF0000A494C4A4885B084F800A08169A8
:101D9000D146D046574656464FF44875D34641F093
:101DA000080181618069694600F0080004904FF4E1
:101DB0008050009011200190012002900320039098
:101DC0003C4800F02BFB00224FF48051394800F0D2
:101DD00022FC142003F0ECF872B6012211033548FE
:101DE00000F019FC6D1EFDD2334D00E03DB14FF403
:101DF0008051304800F002FC012802D003E00120AD
:101E00001EE06D1EF2D22C4D00E035B14FF4805132
:101E1000284800F0F3FB10B103E0022010E06D1E33
:101E2000F3D2254D03E000BF0BF1010B3DB14FF4A0
:101E30008051204800F0E2FB012803D004E0032099
:101E4000207017E06D1EEFD24FEA5B05284600F0C8
:101E500037F88246284600F033F88146284600F0DD
:101E60002FF88046284600F02BF80746284600F059
:101E700027F8064662B6012211030E4800F0CBFB9C
:101E8000207800280CD10AEB090101EB0800384446
:101E9000B04208D13EB10948C0E90287C0E900A9B3
:101EA00005B0BDE8F08F04202070F9E7AB000020FA
:101EB00000100240000C0140A086010054020020E6
:101EC0002DE9F05F0026DFF860A0DFF86090834620
:101ED00034464FF480585546474600E09DB1B84619
:101EE0003946484600F08AFB08B96D1EF6D2002735
:101EF000554601E07F1C35B14146484600F07EFB67
:101F0000012803D004E00020BDE8F09F6D1EF1D24F
:101F10006006040E5F4501D944F00104761CF6B258
:101F2000082ED8D32046EFE7A0860100000C014020
:101F3000704710B5202000F065FABDE81040402041
:101F400000F060BA72B6FEE770B51449087888B13F
:101F500000200870002820D01149124A134D08783B
:101F600013781843104B1C7820432C78204303D05F
:101F7000012402E00120ECE700240020087010702A
:101F8000187028700246014601F058FF002C04D05A
:101F9000BDE870400320FFF7C7BB70BD48000020BC
:101FA00028000020290000202A0000202B0000200B
:101FB00038B5054602F026FA0020194C072D2DD21F
:101FC000DFE805F0040A0E12161F230015480078FA
:101FD000BDE83840FFF774BEBDE8384002F05ABD96
:101FE00002F06EFA032018E002F0DAFB042014E09D
:101FF000102300900CA20321184602F0F7FC0520E4
:102000000BE0BDE8384002F02FBA1023009009A27F
:102010000321184602F0EAFC0720207038BD0000BA
:10202000270000204800002041503A204D795F579A
:1020300069466900526573657420446F6E652100BE
:102040002DE9F047314C324D324EDFF8CC902178FB
:1020500095F8008096F800C041EA080299F80070EF
:10206000002042EA0C023A4301D0012300E00023A1
:10207000DFF8A8A09AF8002032B1012A07D0022A7E
:102080000AD0032A0CD00DE0012903D00AE0B8F1F0
:10209000010F07D1012005E0BCF1010FFAD001E0EA
:1020A000012FF7D000212170297031704F4689F837
:1020B000001048B1002001F0E9FE0320FFF734FBD7
:1020C000BDE8F04702F0FCBA13B90320FFF7F8FAB5
:1020D0009AF80010012049B101290CD002290FD033
:1020E0000329EDD1387001F082FEE9E7207001206C
:1020F00001F0CCFEE4E72870012001F09BFEDFE751
:102100003070012001F06EFEDAE7000028000020A8
:10211000290000202A0000202B000020260000209B
:102120001FB500220091032101910292039269469A
:1021300000F074F91FBD00002DE9F041224C10B3EE
:1021400001282FD0022835D003283BD101221F4E71
:1021500015022946304600F05EFA4FF4404701224E
:102160003946204600F057FA00226115304600F04B
:1021700052FA29463046FFF7D3FF39462046BDE8DC
:10218000F041FFF7CDBF4FF480550022294620468D
:1021900000F041FA29462046FFF7C2FFBDE8F041B2
:1021A000FFF7DCBD01F06AFF094800F03FFA4FF489
:1021B0004061E3E702F040F9064800F037FA4FF4D7
:1021C0004071DBE7BDE8F081000C014000080140F0
:1021D0008C0100203801002030B505003049314C19
:1021E00085B04FF000034FF001004FF0020229D0FC
:1021F000012D44D0022D49D0032D4ED102938B697D
:1022000043F004038B618B6903F0040304938B692F
:1022100043F008038B61896901902802009001F066
:102220000801CDE9032169461F4800F0F7F8A8032B
:1022300000906946204600F0F1F805B0BDE8304056
:1022400001F0DABD8B6943F008038B6189694FF4B3
:10225000805501F008010491009511210392CDE908
:1022600001106946204600F0D9F80122294620468F
:1022700000F0D1F905B0BDE83040FFF777BD01F0BF
:10228000FDFF05B0BDE8304001F0FCBE01F0D6FF17
:1022900005B0BDE8304002F0DBB805B030BD00004D
:1022A00000100240000C01400008014070B50446D7
:1022B00000F0B6F90546601C02D0044800780444DA
:1022C00000F0AEF9401BA042FAD370BD840000209C
:1022D0002DE9F04300233E4F0F2573E001229A4081
:1022E0000A406DD023F00304E619D6F808809C0755
:1022F0004FEA147C05FA0CF909EA0804DFF8D480E7
:10230000404502D14FF0000816E0DFF8CC80404590
:1023100002D14FF001080FE0DFF8C080404502D144
:102320004FF0020808E0DFF8B880404502D14FF0D6
:10233000030801E04FF0040808FA0CF8A04522D188
:10234000284CD4F800C02CEA020CC4F800C0241DAC
:10235000D4F800C02CEA020CC4F800C0214C0C34A4
:10236000D4F800C02CEA020CC4F800C0241FD4F832
:1023700000C02CEA020CC4F800C0D6F808C02CEA51
:10238000090CC6F808C0FF2A01D8064601E000F192
:1023900004064FEA830401D9A4F12004D6F800C052
:1023A00005FA04F82CEA080C4FF0040808FA04F8BF
:1023B0004CEA080CC6F800C0C46824EA0204C460F1
:1023C00003F1010331FA03F288D1BDE8F083000084
:1023D0000000014000080140000C014000100140D5
:1023E0000014014000040140402801D0202806D1FB
:1023F00003480068002802D0012102F0B7BE7047F0
:1024000010000020044910B50A68024202D008609A
:10241000FFF7EAFF10BD0000140401402DE9F84F5A
:10242000DFF8B8910024A9F1040B23460F2709F126
:10243000040AABF1040EC9E00125A5402A40AA42D6
:102440007DD1674ED1F804C0ACEB0608B44532D05C
:1024500014DCBCF1030F3AD009DCBCF1000F2AD028
:10246000BCF1010F1CD0BCF1020F31D11DE0BCF159
:10247000110F17D0BCF1120F2AD119E0B8F5881F3F
:1024800019D006DCB8F5803F15D0B8F5801F1FD1F4
:1024900011E0B8F5001F0ED0B8F5041F18D10AE0FE
:1024A000CB6815E0CB681B1D12E0CB6808330FE04A
:1024B000CB680C330CE08B682BB1012B4FF0080379
:1024C00003D0456104E0042302E0056100E000233D
:1024D000FF2A01D8064601E000F104064FEA840510
:1024E00001D9A5F12005D6F8008007FA05FC28EAF5
:1024F0000C0803FA05F548EA0508C6F800804D689F
:10250000ED0062D5374DAE6946F00106AE61AD69AA
:1025100024F0030605F001050095334D06EB050C8C
:10252000DCF80850A607360F07FA06F825EA080572
:10253000DFF8B880404503D14FF0000817E044E0D1
:10254000DFF8AC80404502D14FF001080FE0DFF822
:10255000A480404502D14FF0020808E0DFF89880DF
:10256000404502D14FF0030801E04FF0040808FA9B
:1025700006F848EA0508CCF808804D68D9F80060EC
:10258000ED024D4601D5164300E096432E604D689E
:10259000DAF80060AD02554601D5164300E09643D7
:1025A0002E604D68DBF80060AD035D4601D5164333
:1025B00000E096432E604D68DEF80060ED0375463E
:1025C00001D5164300E096432E60641C0D682A4630
:1025D000E5407FF431AFBDE8F88F0000080401400A
:1025E00000001110001002400000014000080140EE
:1025F000000C0140001001400014014080680840B8
:1026000000D001207047C26821EA02030A4043EA71
:102610000241016170470AB1016170470904FBE79B
:1026200001488068704700008400002010B5040055
:1026300013D0242084F83D002068016821F00101B6
:102640000160204600F096FA0020206484F83D00E6
:1026500044F8300FA073207310BD012010BD00009E
:1026600070B5040025D094F83D00002520B984F809
:102670003C50204600F0AAFA242084F83D0020684F
:10268000016821F0010101602068016841F4004106
:1026900001602068016821F40041016000F00EFD36
:1026A0004D4A6168914201D84C4900E04C4988424A
:1026B00001D2012070BD4B492368B0FBF1F15E6887
:1026C00026F03F060E435E606368934206D94FF4DE
:1026D000967359434FF47A73B1FBF3F12368491CA5
:1026E0001E6A26F03F06314319626168914210D894
:1026F0004900401EB0FBF1F2521CC2F30B02042A47
:1027000001D2042022E0B0FBF1F0401CC0F30B002A
:102710001CE0A268F2B301EBC10303EB0116431EF8
:10272000B3FBF6F35B1C43F480431B0549D092B323
:1027300001EBC10202EB0111401EB0FBF1F0401CA5
:10274000C0F30B0040F4804040F400402168CA69A7
:102750004CF6FF739A431043C861D4E90710014354
:102760002068026822F0C00211430160D4E903012D
:1027700001432068826848F2FF339A431143816025
:10278000D4E9050108432168CA6822F0FF0210431A
:10279000C86001E00EE016E02068016841F0010128
:1027A00001602564202084F83D00256384F83E50B4
:1027B000002070BD01EB4106431EB3FBF6F35B1C2A
:1027C000B3E70120C2E701EB4101401EB0FBF1F08D
:1027D000401CC0F30B00B7E7A086010080841E00F8
:1027E00000093D0040420F002DE9FF4F83B0002556
:1027F000DDE910799A4693460446DDF84880009555
:10280000FFF70EFF064694F83D0020287CD11923DF
:10281000012288492046009601F0CAF90028F5D126
:1028200094F83C0001286FD0012084F83C00206817
:102830000168C90703D1016841F001010160206806
:10284000016821F400610160222084F83D004020ED
:1028500084F83E0025646762A4F82A90608D208584
:102860007548E062CDE9008653465A4620460499F1
:1028700001F0A0F800287CD1208DDFF8C09120273E
:1028800068B1012814D00228206801681ED041F4E4
:10289000806101602068416980690090BCE0206827
:1028A000416981690091016841F400710160B3E000
:1028B0002068016821F48061016072B62068416976
:1028C00081690091016841F400710AE041F40061FE
:1028D000016072B62068416981690091016821F444
:1028E0008061016062B697E0032865D801280CD0AA
:1028F000022843464FF000024946204600960BD07E
:1029000001F056F9A8BB0CE091E032464146204662
:1029100001F0F4F968BB72E001F04AF948BB72B605
:1029200033E02068016821F48061016072B620689C
:102930000069616A0870606A401C6062208D401EF8
:102940002085608D401E60853D4846F2A8110068D4
:10295000B0FBF1F0C0EBC00000EB80000090401E27
:10296000009007D020684069C04340070DD500980B
:10297000F5E727E044F8305F6773A573206940F0FE
:102980002000206162B625731CE02068016841F4D4
:102990000071016020680069616A0870606A401C0B
:1029A0006062218D491E2185618D491E618562B657
:1029B00021680969017026E032464146204601F04F
:1029C0009DF918B1012007B0BDE8F08F20680069BB
:1029D000616A0870606A401C6062208D401E81B28E
:1029E0002185608D401E608520684269D243520770
:1029F00012D4032903D1016821F4806101602068A9
:102A00000069616A0870606A401C6062208D401E27
:102A10002085608D401E6085208D00287FF464AF86
:102A200084F83D7084F83E5084F83C50CBE7022097
:102A3000C9E70000020010000000FFFF04000100D1
:102A4000900000202DE9FF4F83B09A46DDE91197F1
:102A500093460446DDF84080FFF7E2FD054694F812
:102A60003D0020287FD119230122404920460095AE
:102A700001F09EF8002876D194F83C00012872D02D
:102A8000012084F83C0020680168C90703D101686F
:102A900041F0010101602068016821F400610160DA
:102AA000212084F83D00402084F83E000026266462
:102AB000C4F82480A4F82A90608D20852C48E06218
:102AC000CDE9007553465A462046049900F0F0FFC0
:102AD00070B930E02A463946204601F047F958B12E
:102AE000206C042804D12068016841F40071016061
:102AF000012007B0BDE8F08F606A216800780861A6
:102B0000606A401C6062218D491E89B22185628DF8
:102B1000521E628522685369DB435B070BD469B19F
:102B200000781061606A401C6062208D401E208524
:102B3000608D401E6085208D0028CBD12A46394605
:102B4000204601F009F80028CAD154F83D0B01686D
:102B500041F400710160202004F81E09E6776677D1
:102B60000020C6E7FFE70220C3E7000002001000D4
:102B70000000FFFF10B50068104A1149114C904247
:102B800009D1C86920F40010C86189152046FFF7F3
:102B90009FFB61150CE00C4A90420ED1C86920F4ED
:102BA0008000C86111152046FFF792FB4FF40061C9
:102BB0002046BDE81040FFF78BBB10BD005400401D
:102BC00000100240000C01400058004030B585B0B4
:102BD00000210091019102910391214D0368214C44
:102BE000122103222048AB421DD1A36943F0080300
:102BF000A361A369039203F0080304931302CDE9D0
:102C000000316946FFF70AFC1848416841F0E0616D
:102C100041F002014160E06940F40010E061E069C8
:102C200000F4001019E0124DAB4217D1A36943F034
:102C30000803A361A369039203F0080304934FF40C
:102C40004063CDE900316946FFF7E8FBE06940F4F5
:102C50008000E061E06900F48000049005B030BDC0
:102C60000054004000100240000C014000000140F0
:102C70000058004002488168027811448160704722
:102C800084000020074810B5016841F01001016080
:102C9000032000F07BF80F2000F006F800F024F885
:102CA000002010BD0020024070B50D4D04464FF4C9
:102CB0007A712878B1FBF0F00A490968B1FBF0F0AD
:102CC00000F0E1FD48B9102C07D200222146501E29
:102CD00000F03CF800206C6070BD012070BD000069
:102CE00084000020900000200F4808B5816941F061
:102CF00001018161816901F001010091C16941F027
:102D00008051C161C069002200F0805000900F2105
:102D1000901E00F01BF80548416821F0E06141F089
:102D20000071416008BD0000001002400000014039
:102D3000002809DB00F01F020121914040098000BA
:102D400000F1E020C0F8001170470000F0B40E4B15
:102D50001B680C46C3F30223C3F10705042D00D9F9
:102D60000425191D072901D2002300E0DB1E0126DE
:102D700006FA05F1491E214099409E40761E1640F4
:102D80003143F0BC02F07BB80CED00E0064900F0E6
:102D9000070208684FF6FF03184040EA0220034A82
:102DA00010430860704700000CED00E00000FA05D9
:102DB000014901200862704700000E420E4A10B51A
:102DC000136823F002031360136823F00103034325
:102DD00013600A4C206840F004002060012909D0EB
:102DE00040BF01F053FE01F051FE206820F00400C6
:102DF000206010BD30BFF8E70070004010ED00E02B
:102E000010B501460020234C012922D0022939D0D7
:102E100010291DD161682268D20119D51E48C1F35D
:102E20008342C903805C0AD561681B4AC1F34041F3
:102E3000921E515C194AB2FBF1F1484301E0184976
:102E400048436168490203D440000321B0FBF1F01C
:102E500010BD226AC2F30121012903D1920701D5D5
:102E6000C80310BD022905D1626A920702D549F64E
:102E7000404010BD0329FCD121688903F9D54FF2E8
:102E8000244010BD00F02AF96168C1F38131491C6A
:102E90004900DBE700100240E872000800127A00E7
:102EA00000093D002DE9F84305460078354CC00780
:102EB00054D0E0690026C00008D4E06940F080509A
:102EC000E061E069012600F0805000902E48016822
:102ED000C90512D40168804641F480710160FFF792
:102EE0009FFB074605E000BFFFF79AFBC01B642865
:102EF00023D8D8F80000C005F6D5206A10F4407039
:102F000021D0A98801F4407181421CD0206A1F4958
:102F1000012220F440700A6000220A602062C0078B
:102F200011D0FFF77DFB074641F2883808E000BF6B
:102F3000FFF776FBC11B414502D90320BDE8F883AA
:102F4000206A8007F4D5206A696820F4407008433D
:102F500020621EB1E06920F08050E061287880078F
:102F600005D56068A96820F440400843606028786F
:102F7000C00605D56068E96820F4800008436060F9
:102F80000020DBE700100240007000404004424295
:102F90002DE9F0470F46050061D0434E306800F040
:102FA0000700B84209D2306820F00700384330608B
:102FB000306800F00700B84251D128683B4C8107C7
:102FC00012D5400703D5606840F4E060606028785F
:102FD000000703D5606840F4605060606068A968CD
:102FE00020F0F000084360602878C00728D06868A7
:102FF000012810D02168022810D0890700292EDA74
:10300000616821F0030101436160FFF709FB80461D
:1030100041F288390DE021688903EFE78901EDE786
:10302000FFF7FEFAA0EB0801494502D90320BDE8ED
:10303000F0876068696800F00C00B0EB810FEFD199
:10304000306800F00700B8420BD9306820F0070064
:1030500038433060306800F00700B84201D00120EA
:10306000E5E72878400705D56068E96820F4E06066
:10307000084360602878000706D56068296920F455
:10308000605040EAC100606000F038F86168084AAA
:10309000C1F30311515CC840064908600648006846
:1030A000FFF702FE0020C2E70020024000100240AD
:1030B000F8720008900000208800002004480549AC
:1030C00000684968044AC1F30221515CC840704756
:1030D00090000020001002400873000804480549D1
:1030E00000684968044AC1F3C221515CC840704776
:1030F0009000002000100240087300080E4A51683A
:103100000E4801F00C03042B11D0082B0FD10C48F2
:10311000C1F38343C903C05C0AD55168084AC1F3AF
:103120004041921E515C054A5043B0FBF1F070479C
:1031300004494843704700000010024000127A0022
:10314000D672000800093D002DE9F84F040070D048
:103150002078C04DC00749D06868C0F381000128BD
:1031600007D06868C0F38100022809D16868C003ED
:1031700006D52868800339D560680028E7D035E097
:103180006068B0F5803F0BD010B1B0F5A02F11D022
:10319000286820F480302860286820F4802002E02D
:1031A000286840F480302860606890B1FFF738FAF2
:1031B00006460AE0286840F480202860F0E700BF57
:1031C000FFF72EFA801B642873D828688003F7D590
:1031D0000CE0FFF725FA064605E000BFFFF720FAEE
:1031E000801B6428F0D828688003F7D420789A4E92
:1031F00080074FF001094FF0000839D5686810F0DA
:103200000C0F07D06868C0F38100022809D16868F4
:10321000C00306D42868800714D52069012808D186
:1032200010E02069B0B1C6F80090FFF7F9F9074641
:1032300005E00AE1FFF7F4F9C01B0228C4D82868AA
:103240008007F7D52868616920F0F80040EAC100DE
:1032500028600DE0C6F80080FFF7E2F9074604E0B9
:10326000FFF7DEF9C01B022823D828688007F7D4AF
:10327000207800072CD57948A169D9B1C0F8009011
:10328000FFF7CEF9074604E0FFF7CAF9C01B022892
:103290000FD8686A8007F7D571484FF4FA51006873
:1032A000B0FBF1F0009000BF0098411E0091FAD2EF
:1032B0000EE080E0C0F80080FFF7B2F9074604E0B6
:1032C000FFF7AEF9C01B022875D8686A8007F7D4EB
:1032D0002078400760D5E8690027C00008D4E86975
:1032E00040F08050E861E869012700F080500090CC
:1032F0005C480168C90513D40168834641F48071B4
:103300000160FFF78DF9824606E000BFFFF788F9FC
:10331000A0EB0A0064284ED8DBF80000C005F5D504
:10332000E06801280AD008B1052813D0286A20F0E7
:1033300001002862286A20F0040002E0286A40F0B8
:1033400001002862E06841F2883B98B1FFF768F914
:1033500082460BE0286A40F004002862EEE700BFD6
:10336000FFF75EF9A0EB0A0159455AD8286A800791
:10337000F6D50CE0FFF754F9824605E0FFF750F967
:10338000A0EB0A0159454CD8286A8007F6D41FB132
:10339000E86920F08050E861E06988B36968C1F3AA
:1033A0008101022944D00228C6F8608004D0FFF7CA
:1033B00037F9044638E034E0FFF732F9074604E015
:1033C000FFF72EF9C01B02282BD828688001F7D4FC
:1033D000206AB0F5803F05D16868A16820F400300C
:1033E00008436860D4E908010843696821F474114E
:1033F00008436860C6F86090FFF712F9044606E0DB
:1034000025E000BFFFF70CF9001B022809D8286847
:103410008001F7D51BE000BFFFF702F9001B02286F
:1034200002D90320BDE8F88F28688001F4D40EE0AB
:103430000128F7D06868226A00F48031914204D1F3
:10344000616A00F47010884201D00120EAE7002090
:10345000E8E70000001002400000424280044242BF
:103460009000002000700040024850F8210080B217
:1034700070470000006C0040024800EB810091B2F0
:1034800001607047006C00407047704710B50446FB
:1034900000680168C90717D04168C90714D040689F
:1034A0004007204607D5FFF7F0FF21686FF00400C2
:1034B0004860042002E0FFF7E7FF01206074206805
:1034C000416821F00101416010BDF8B505004FF0E1
:1034D000000016460C46009006D02CB1002269462A
:1034E000284600F019F808B10120F8BD287B2070AB
:1034F000E87BE070697B6170A97BA17056B101F037
:10350000F6FAE070607801F0F2FA6070A07801F0ED
:10351000EEFAA0700020F8BD2DE9F04791460C4668
:103520005FEA00084AD084B3D8F80000406840073A
:1035300044D4404601F081FB4FF461620546B0FB84
:10354000F2F1B0FBF2F302FB13503C23B0FBF3F0BB
:10355000B5FBF2F6607002FB1650B0FBF3F203FB12
:103560001200A070182931D31820B1FBF0F7B1FB7D
:10357000F0F200FB12102070404601F057FB411C96
:1035800004D0A84202D9461B02E017E04FF0FF36F4
:10359000A7EB071000EB4000C0EB001005EBC015D7
:1035A0002946404601F098FB40B9701C01D07119C2
:1035B00000E03146404601F07BFB10B10120BDE840
:1035C000F0873946404601F09DFA00E02170B9F1DC
:1035D000000F0BD0207801F08AFA2070607801F09B
:1035E00086FA6070A07801F082FAA0700020E6E709
:1035F00070B5040003D0607C002610B105E0012006
:1036000070BD2674204600F03DF80220607420460C
:1036100000F01CF9042550BB204601F0CAFA30BB6B
:103620002068416821F007014160A06820B114487A
:10363000016821F0010101601148001F0168A268C2
:1036400021F46071114301606068411C04D10120C4
:10365000FFF7D6FB58B1401E2268C0F303419160CA
:10366000216880B2C860204601F0BEFA08B16574D6
:10367000C5E7E67301206073A0736074002070BD1D
:10368000306C004008B50068114988421FD1FFF72F
:103690008FFB1048C16941F00061C161C0690E49EA
:1036A00000F0006000900120086000220521032046
:1036B000FFF74CFB0320FFF73BFB002205212920ED
:1036C000FFF744FBBDE808402920FFF731BB08BDE8
:1036D00000280040001002403C0442422DE9F04125
:1036E0000D4604003BD0C5B3207C01283AD04FF0F2
:1036F000010884F8108002206074E87872B301F049
:10370000EDF9E073687801F0E9F96073A87801F0E9
:10371000E5F9A073C2B2617BE07B01F09EFA2073F1
:103720002870204601F089FA4FF46161B0FBF1F195
:10373000002518292DD91822B1FBF2F1A1EB0111B6
:1037400001EB4101C1EB011100EBC11631462046EE
:1037500001F0C2FA0427C8B90BE000E004E0012040
:10376000BDE8F0810220FBE7E07368786073A87819
:10377000CFE7204601F05AFA411C0AD0B04208D2E5
:1037800006490144204601F093FA10B1677425748C
:10379000E5E784F8118025740020E1E780510100FD
:1037A0002DE9F0410D46040024D01DB3207C0128F2
:1037B00023D04FF0010884F810800220607428782C
:1037C000EAB101F08BF94FF4616100FB01F6687812
:1037D00001F084F9C0EB001006EB8006A87801F038
:1037E0007DF935182946204601F076FA002604278F
:1037F00010BB0FE00120BDE8F0810220FBE74FF491
:10380000616148436978C1EB011100EB8100A9783F
:103810004518E7E72068416821F00501416020462E
:1038200001F004FA411C0AD0A84208D2064901441A
:10383000204601F03DFA10B167742674DAE784F887
:10384000118026740020D6E78051010070B5040075
:103850000AD02068416821F008014160FEF7E0FECF
:1038600005464FF47A7608E0012070BDFEF7D8FED9
:10387000401BB04201D9032070BD2068406800079A
:10388000F4D5002070BD10B5401EB0F1807F01D38B
:10389000012010BD4FF0E02460610F21601701F09E
:1038A000EEFA0020A06107202061002010BD70B555
:1038B000040004D094F84100002510B106E0012076
:1038C00070BD84F84050204600F024F8242084F88D
:1038D00041002068C16821F40051C160204601F018
:1038E0005DFA2068016921F4904101612068416915
:1038F00021F02A0141612068C16841F40051C16092
:103900006564202084F8410084F84200656300204B
:1039100070BD000030B585B000240094019402947D
:10392000039400681449884224D11448816941F401
:1039300080418161816901F480410491816941F094
:103940000401816180690E4D00F0040004904FF481
:1039500000700090022001900320039069462846E1
:10396000FEF75CFD2815CDE900046946284602945F
:10397000FEF754FD05B030BD003801400010024094
:1039800000080140FEE701684A69D24352050FD49E
:103990006FF480624A61002140F8301F2022427398
:1039A0008173026942F004020261017301207047D1
:1039B000002070472DE9F84F0446006889460B9DAA
:1039C00001689846174641F48061016020680168EB
:1039D00041F48071016000954FF0011B00225946AF
:1039E00020460A9B00F0E4F84FF4007A40B12068CA
:1039F0000068C00501D5C4F840A00320BDE8F88FD9
:103A0000216809F0FE0008612B46284920460A9AE1
:103A100000F016F9F0BB20684169806900902A46E1
:103A200020460A9900F0A2F940B1206C04283AD14E
:103A30002068016841F40071016034E0FEB2B8F121
:103A4000010F09D02168380A08612A4620460A99E0
:103A500000F08CF90028E8D1206806612A4620464B
:103A60000A9900F083F90028DFD12068016841F449
:103A70008071016000950022594620460A9B00F0A3
:103A800097F80028B3D1216809F0FF0040F0010049
:103A9000086100E007E02B46044920460A9A00F03E
:103AA000CFF80028AAD00120A8E7000002000100FA
:103AB0002DE9F843044600680D46DDE908970168E2
:103AC0009846164641F4807101604B4600224FF043
:103AD00001112046009700F06BF848B1206800689B
:103AE000C00502D54FF4007020640320BDE8F883C0
:103AF000216805F0FE0008613B464A46154920460C
:103B000000F09EF888B920684169806900903A46C3
:103B10004946204600F02AF948B1206C042804D117
:103B20002068016841F4007101600120DEE7F5B210
:103B3000B8F1010F09D02168300A08613A464946B8
:103B4000204600F013F90028E7D120680561002025
:103B5000CCE700000200010070B516460D46044691
:103B60001EE02046FFF70FFF08B1012070BD681C62
:103B700016D0FEF755FD801BA84200D885B92068F5
:103B80004069C04340070BD5002044F8300F202186
:103B90006173A073216941F0200121612073E4E782
:103BA00020684069C0434007DBD4002070BD00009E
:103BB0002DE9F047984617460D460446C1F30746DF
:103BC000DDF820902AE000BFB8F1FF3F26D0FEF7D5
:103BD00027FDA0EB0901414502D8B8F1000F1DD126
:103BE0002068012E16D0806925EA00000004000C30
:103BF00012D00020B84211D1002044F8300F20210B
:103C00006173A073216941F02001216120730120BB
:103C1000BDE8F0874069E7E70120EBE72068012E67
:103C20000AD0806925EA00000004000C06D00020BC
:103C3000B842C9D00020EBE74069F3E70120F7E77D
:103C40002DE9F047984616460D4604464FF0000908
:103C50004FF0200AC1F3074723E020684069C043C2
:103C6000400515D42068016841F4007101602168A5
:103C70006FF480604861C4F8309084F83DA084F807
:103C80003E90216C41F00401216484F83C9021E0D5
:103C9000701C06D0FEF7C4FCA0EB0800B04203D8AD
:103CA00016B1012F1FD021E02068012F15D08069A7
:103CB00025EA00000004000C18D000BF44F8309F33
:103CC00084F80DA084F80E90216941F02001216153
:103CD00084F80C900120BDE8F087406925EA0000D7
:103CE0000004000CEAD12068406901E02068806986
:103CF00025EA00000004000CAFD1ECE72DE9F0410B
:103D0000002590460E460446202728E04069C0431F
:103D1000C0060CD454F8301B6FF01000486144F812
:103D200010596777A577206A2062257714E0FEF79F
:103D300077FCA0EB0800B04200D886B92068406943
:103D4000C04340060BD544F8305F6773A573206904
:103D500040F02000206125730120BDE8F08120683B
:103D60004169C9434906D1D40020F6E770B516462B
:103D70000D4604461EE02046FFF705FE08B101206F
:103D800070BD681C16D0FEF74BFC801BA84200D803
:103D900085B920684069C04300060BD5002044F86F
:103DA000300F20216173A073216941F0200121614E
:103DB0002073E4E720684069C0430006DBD400209C
:103DC00070BD000000224FF400510148FEF723BCF3
:103DD000001001404FF400510148FEF714BC0000F0
:103DE0000010014002460021084600F027B80022DA
:103DF0000146104600F022B810B50C4C01225102C9
:103E00002046FEF708FC012211022046FEF703FCC3
:103E1000074C0122D1032046FEF7FDFB204601227C
:103E2000BDE810409103FEF7F6BB0000000801401A
:103E3000000C014000221146AFF3008070B514461B
:103E40000D46C0B15FF000024FF480710D48FEF7DF
:103E5000E2FB95B15FF000020B4D4FF48041284624
:103E6000FEF7D9FB5CB100222846BDE870404FF454
:103E70000041FEF7D0BB0122E6E70122ECE7012278
:103E8000F2E7000000080140000C01400246114624
:103E9000FFF7D4BF10B54FF08D4471B1082904D09D
:103EA000102905D0182908D105E04FF08C4404E012
:103EB0004FF08B4401E04FF08A4403F039F921467A
:103EC000BDE8104003F072B810B50A4C59B108298A
:103ED00004D0102904D0182905D103E0064C02E0D3
:103EE000064C00E0064C03F023F92146BDE81040E3
:103EF00003F05CB800000343000083423333034205
:103F00003333834110B5752000F066F8682801D07E
:103F1000012010BD80216B2000F0BEF8322001F09E
:103F200047F801216B2000F0B7F800216C2000F069
:103F3000B3F80921192000F0AFF806211A2000F08B
:103F4000ABF818211B2000F0A7F818211C2000F066
:103F5000A3F8002010BD000070B586B014460D46D1
:103F600006463222062103A88DE8070001233B22E2
:103F7000D0210848FEF738FCBDF80C0040BA30806C
:103F8000BDF80E0040BA2880BDF8100040BA20806D
:103F900006B070BD8C01002070B586B014460D4689
:103FA00006463222062103A88DE80700012343229A
:103FB000D0210848FEF718FCBDF80C0040BA30804C
:103FC000BDF80E0040BA2880BDF8100040BA20802D
:103FD00006B070BD8C0100201FB500218DF80C10BB
:103FE0003223012203A98DE80E0013460246D02198
:103FF0000348FEF7F9FB9DF80C0004B010BD00006B
:104000008C0100202DE9F04387B01546DDE90E89CB
:104010000E4607461C4602AA01A96846FFF79CFF08
:1040200005AA04A903A8FFF7B7FF1821BDF90000EE
:10403000FFF730FF38601821BDF90400FFF72AFFB1
:1040400030601821BDF90800FFF724FF286018210F
:10405000BDF90C00FFF738FF20601821BDF91000F2
:10406000FFF732FFC8F800001821BDF91400FFF770
:104070002BFFC9F8000007B0BDE8F08340216B209A
:1040800000F00AB810B500216B2000F005F8BDE87B
:1040900010401E2000F08CBF03B583B032230122F4
:1040A00004A98DE80E0013460246D0210248FEF70F
:1040B000C9FC05B000BD00008C01002010B5002235
:1040C0000121102000F0F2FF154C164A002120605B
:1040D000154801F0D1F8134AA0602432002113489A
:1040E00001F0CAF80F4AE06048320021104801F0A0
:1040F000C3F80C4A20616C3200210E4801F0BCF874
:10410000084A6061903200210B4801F0B5F8054A79
:10411000A061B4320021094801F0AEF8E06110BDA1
:1041200004000020FC710008691700082D1A00081F
:1041300099180008A5170008B51B0008691C00089D
:104140002DE9F04385B0002437480094019402948F
:104150000394816941F010018161816901F01001CE
:104160000491816941F020018161816901F02001A0
:104170000491816941F004018161816901F00401C8
:104180000491816941F0080181618069012200F098
:104190000800DFF898805703049039464046FEF740
:1041A0003AFADFF88C90002239464846FEF733FA97
:1041B0000226012500970396CDE901546946404641
:1041C000FEF72CF9602000901A48CDE90105DFF8D0
:1041D000688069464046FEF721F900970396CDE9CD
:1041E000015469464846FEF719F94FF44070CDE98D
:1041F0000005CDE9024669464046FEF70FF94FF447
:104200004040CDE90005CDE9024669464846FEF743
:1042100005F9002206211720FEF798FD1720FEF76A
:1042200087FD05B0BDE8F08300100240001001409A
:10423000000C014000002110000801400D4810B59D
:104240000B4901600C49416000214FF480428160BC
:10425000C0E9031241618161C1610162FEF700FAA8
:10426000002803D0BDE81040FDF76CBE10BD000073
:104270000054004038010020801A06000D4810B597
:104280000B4901600C49416000214FF4804281607C
:10429000C0E9031241618161C1610162FEF7E0F989
:1042A000002803D0BDE81040FDF74CBE10BD000053
:1042B000005800408C010020801A06002DE9FF41C3
:1042C00000243F4802943D49009401601F21C0E949
:1042D0000114FFF78DF908B1FDF734FE14208DF8B5
:1042E00008008DF809408DF80A40012202A93448DF
:1042F000FFF756FA08B1FDF725FE4FF001088DF8DB
:10430000008005258DF8015004268DF802602620D6
:104310008DF80300424669462948FFF7DFF908B1E6
:10432000FDF710FE2748C16941F08051C161C169A4
:1043300001F080510191C16941F00061C161C06922
:1043400000F000600190FEF733FD01211C48FFF7EB
:104350008BF845F25007B8422DD001211848FFF7DD
:1043600083F8B84227D003940E208DF80C001E204D
:104370008DF80D0001948DF80E40002203A910481D
:10438000FFF70EFA08B1FDF7DDFD1A208DF80700E2
:104390008DF805508DF806608DF80480002201A983
:1043A0000748FFF79BF908B1FDF7CCFD3A4601211C
:1043B0000348FFF761F8BDE8FF81000000280040D6
:1043C000E0010020001002400C4810B50A490160CD
:1043D0004FF4E1314160002181600C22C160C0E9ED
:1043E00004128161C161FFF762FA002803D0BDE8C1
:1043F0001040FDF7A7BD10BD00380140F4010020BA
:10440000FEE7FEE770B5002404F1B000C0B200F092
:1044100019FB002000F016FB102000F013FB002514
:10442000002000F021FB6D1CEDB2802DF8D3641C40
:10443000E4B2082CE8D370BD10B58D2000F002FB6B
:10444000102000F0FFFABDE81040AE2000F0FABAEC
:1044500010B58D2000F0F6FA142000F0F3FABDE854
:104460001040AF2000F0EEBA38B5002410230BA2A4
:1044700002211220009400F0B9FA0C484FF010030A
:104480000078009440B10AA20421402000F0AEFA66
:1044900008490620087038BD07A2F5E72D2D4C6F9E
:1044A0007720506F7765722D2D00000048000020A6
:1044B0004F4E2000270000204F46462000000000FD
:1044C00030B53B4887B00024007828B11023032181
:1044D00038A2192000943BE03A483B4D4FF01003BE
:1044E000017801200029009036D0002137A208462B
:1044F00000F07CFAE86802F02DFD02460B4638A178
:1045000001A8FBF7EDFE102301AA02210020009470
:1045100000F06CFA286902F01DFD02460B4634A13A
:1045200001A8FBF7DDFE102301AA0421002000945E
:1045300000F05CFA686902F00DFD0B46024630A1FE
:1045400001A8FBF7CDFE102301AA0621002000944C
:1045500000F04CFA07B030BD00212DA2084600F053
:1045600045FA286802F0F6FC02460B462DA101A888
:10457000FBF7B6FE102301AA02210020009400F0F0
:1045800035FA686802F0E6FC02460B4629A101A84C
:10459000FBF7A6FE102301AA04210020009400F0DE
:1045A00025FAA86802F0D6FC0B46024625A1C7E70B
:1045B000480000204C6F7720506F7765722E2E2EAA
:1045C00000000000490000203C0200202D2D2D207D
:1045D0004779726F202D2D2D202020200000000013
:1045E000583A25372E316620647073200000000091
:1045F000593A25372E316620647073200000000080
:104600005A3A25372E31662064707320000000006E
:104610002D2D2D20416363656C202D2D2D20202014
:1046200000000000583A25362E32662067202020F0
:1046300020200000593A25362E326620672020209F
:10464000202000005A3A25362E326620672020208E
:104650002020000038B5124D002428782044C0B234
:10466000072815D20F490978884201D1012100E0BD
:10467000002100910C4951F820206006010E102302
:10468000002000F0B3F9641CE4B2042CE5D338BD7B
:10469000002000906006010E102304A2F0E7000045
:1046A00025000020240000202C00002020202020B5
:1046B000202020202020202020202020000000007A
:1046C00070B5204E86B000243078844201D1012597
:1046D00000E0002534B1012C0CD0022C22D0032C98
:1046E00012D127E01848007808B118A200E018A2FB
:1046F00018A106E01B48007808B114A200E014A23B
:1047000019A101A8FBF7ECFD6006010E102301AA18
:104710000020009500F06AF9641CE4B2042CD3D3A5
:1047200006B070BD1448007808B108A200E008A2E5
:1047300012A1E6E71548007808B104A200E004A23F
:1047400013A1DEE726000020280000204F4E2000A5
:104750004F464600312E2057686974653A2025730C
:104760002020200029000020322E205265642020C5
:104770003A202573202020002A000020332E2042DA
:104780006C7565203A202573202020002B00002026
:10479000342E20477265656E3A2025732020200054
:1047A00030B587B001200021009010231EA20846DA
:1047B00000F01CF9214C22A1E0780090A378228817
:1047C00001A8FBF78DFD0025102301AA0221284630
:1047D000009500F00BF9A079009063792279C10768
:1047E00020D01DA101A8FBF77BFD102301AA042105
:1047F0000020009500F0FAF8E079411E062900D962
:1048000000200E49083151F8202019A101A8FBF71A
:1048100067FD102301AA06210020009500F0E6F8AC
:1048200007B030BD16A1DDE72D2D2D4C6F63616CF7
:104830002054696D652D2D2D000000004C000020D6
:10484000202020253034642D253032642D2530324F
:104850006420202000000000202020202530326429
:1048600020253032642025303264202020200000B2
:10487000202020205B202573205D202020200000A8
:1048800020202020253032643A253032643A253009
:10489000326420202020000070B5C820FDF706FDFE
:1048A000044D0024285D00F0CDF8641CE4B2172C00
:1048B000F8D370BD9400002010B50446B031C8B2E2
:1048C00000F0C0F8102040EA141000F0BBF804F02B
:1048D0000F00BDE8104000F0B5B800002DE9F0472A
:1048E000203A0024089E0F468146D5B27F2803D97E
:1048F00000208F1C8146FFB2102B394612D0FFF7E3
:10490000DBFF1B4905EB450001EB4005285D0EB1BF
:10491000C043C0B200F0A8F8641CE4B2062CF5D382
:10492000BDE8F087FFF7C8FFDFF8488004EB05110A
:1049300018F801000EB1C043C0B200F095F8641C35
:10494000E4B2082CF2D37F1CF9B24846FFF7B4FF5B
:104950000024474604EB05103844007A0EB1C043EA
:10496000C0B200F081F8641CE4B2082CF2D3D7E79F
:1049700010730008387500082DE9FF4F81B000263C
:10498000DDE90EA91D469346804634464FEA5A0794
:1049900027E0281B401EC1B20A2000F001FBBBFB30
:1049A000F0F00A21B0FBF1F201FB120026B9691EFA
:1049B0008C4201DA48B101263030C2B207FB0480D4
:1049C000C0B25346CDF8009006E007FB0480C0B2A9
:1049D00053462022CDF800900299FFF77FFF641C18
:1049E000E4B2AC42D5D305B0BDE8F08F2DE9F84371
:1049F0001E461746894604460025DDF8208014E04F
:104A0000334649462046CDF80080FFF767FF0C2E5D
:104A100010D00834E4B27A2C01D90C2E0CD0782CAA
:104A200001D9102E08D06D1CEDB27A5D002AE7D1B5
:104A3000BDE8F883A41DEDE709F10100002400F0B2
:104A4000FF09F0E701B584B001214FF4807204A89A
:104A50008DE807000B46002278210248FDF7F2FF9F
:104A600005B000BD3801002001B584B001214FF42C
:104A7000807204A88DE807000B4640227821024886
:104A8000FDF7E0FF05B000BD3801002020BF00BFEA
:104A90007047000010B5FFF713FE024902200870AE
:104AA00010BD000027000020094800684168890700
:104AB0000CD5416821F00201416006494FF40030F5
:104AC000086005480121006800F050BB70470000F5
:104AD000E00100201404014010000020010901EB56
:104AE000810100F00F0000EB4100C0B270470021CF
:104AF00002E00A38C0B2491C0A28FAD2090740EA83
:104B0000116070472DE9F04104460025C07B627BAF
:104B1000A37B42E0012A16D0032A14D0052A12D022
:104B2000072A10D0082A0ED00A2A0CD00C2A0AD044
:104B3000042A10D0062A0ED0092A0CD00B2A0AD03B
:104B4000022A0DD028E01F2B0CD30C2A05D10122FC
:104B50001346401C20E01E2B04D30123521C1BE0F3
:104B60001C2B02D203F1010316E011D183B29E0780
:104B700010D16426B3FBF6F706FB173636B94FF4AF
:104B8000C876B3FBF6F706FB17331BB91D2303E00A
:104B90001D2B01D1032201236D1C8D42BAD3D1B24A
:104BA000E0736173DAB2A27300F057F82073BDE8C6
:104BB000F08170B50446FDF733FD05464FF47A7673
:104BC00006E0FDF72DFD401BB04201D9032070BD6A
:104BD000206840688006F4D52068416841F01001E3
:104BE0004160002070BD000070B504460068416857
:104BF00021F010014160FDF713FD05464FF47A7670
:104C000007E000BFFDF70CFD401BB04201D90320B7
:104C100070BD206840688006F4D5002070BD00009B
:104C20000148FEF733BC0000E00100200168086A7B
:104C3000496A89B241EA00407047006881698AB2D6
:104C4000C1698BB2816989B28A4203D0C06961F3BC
:104C50001F40704743EA02407047F0B56424C1EB3F
:104C6000C1030927A500072603EB01130329B3FBA2
:104C7000F7F100F5FA60114401440AD2401EB0FB7E
:104C8000F4F201EB9001B0FBF5F0891A0844001D25
:104C900008E0B0FBF4F201EB9001B0FBF5F0891AEB
:104CA0000844801CB0FBF6F106FB1100C0B2F0BD59
:104CB00070B50D4606460024FFF77BFF48B9316802
:104CC000280C08623168A8B248623046FFF78CFFB2
:104CD00000B10124204670BD70B50D460646002483
:104CE000FFF767FF48B93168280C88613168A8B2BE
:104CF000C8613046FFF778FF00B10124204670BD3F
:104D000010B5FDF7B7FF01F001FF012803D0BDE8A2
:104D1000104001F0CDBA10BD70B594B0282168469E
:104D2000FBF767FC14210AA8FBF763FC00250124AC
:104D30000F951195052012950090CDE9025410951C
:104D40004FF48030019002260494CDE907604FF4BF
:104D5000E01009906846FEF7F7F908B172B6FEE771
:104D60000F20CDE90A064FF48060CDE90C500221F6
:104D70000AA80E95FEF70CF908B172B6FEE74FF4DB
:104D80008070CDE90F400FA8FEF78CF8002801D005
:104D900072B6FEE714B070BD7047000070B50446EF
:104DA00000680169E26821F4405111430161216901
:104DB000A0680843616908432168CA6841F20C632E
:104DC0009A430243CA6020684169A26921F4407194
:104DD000114341611E492068884202D1FEF77EF9E5
:104DE00001E0FEF76BF900EBC00101EB0012606817
:104DF00064218000B2FBF0F3B3FBF1F36FF018060F
:104E00007343B2FBF0F5B2FBF0F605EB83053223FA
:104E100003EB0515B5FBF1F5B6FBF1F605F0F00572
:104E200005EB0615B2FBF0F6B2FBF0F0B0FBF1F0CB
:104E30006FF01802504306EB800003EB0010B0FB4C
:104E4000F1F0216800F00F002844886070BD000078
:104E500000380140FEE7490050EAC12018BF042095
:104E60004A0D18BF40F0010040F2FF72B2EB515FF3
:104E700008BF40F00200012808BF0520704709075D
:104E8000090E002804DB00F1E02080F800147047D0
:104E900000F00F0000F1E02080F8141D704730385A
:104EA0000A2801D201207047002070477047000097
:104EB00009490120096809B1002070470749CA69FA
:104EC000002AF9D1044A283212688968491E8A42A8
:104ED000F3D10220704700002C070020AC00002016
:104EE00004490A685206FCD5024AC1B2121D11607B
:104EF000704700000038014086B0FDF7C3FEFFF7A1
:104F00000BFFFFF71DF9FEF777FFFFF75DFAFFF7DD
:104F1000D5F9FFF793F9FFF7B1F9FFF7BDFCFFF7FC
:104F200071FAFEF74FFFFCF7E7FB00F055F8FFF7CB
:104F3000C5F800F063F84FF4FA64002203A90E48A4
:104F4000FEF7EAFA002204A90B48FEF7BEFA9DF824
:104F50000C009DF80E209DF80D108DE807009DF8BF
:104F600012309DF811209DF8131004A0FBF7ACF946
:104F70002046FDF79BF9E0E7E001002032302530C4
:104F800032642D253032642D2530326420253032B4
:104F9000643A253032643A253032640A0000000059
:104FA0000246012000E05043491EC9B2FBD27047BF
:104FB00010B5EFF3058111B16FF0050403E0002493
:104FC00008B101F027F8204610BDEFF3058008B1C5
:104FD00001F0B0BD01F0A8BDEFF3058010B16FF096
:104FE000050070470448016811B14FF0FF30704769
:104FF0000121016000207047FC00002010B5EFF394
:10500000058010B16FF0050010BD08480168012946
:1050100002D04FF0FF3010BD054A002182F8141D68
:105020000221016001F05EF8002010BDFC000020AC
:105030000BE000E0F8B51D466FF003026FF00206CA
:105040004FF00004EFF30583A3B1F0B1E9B1E5B986
:10505000002200926A4601F085FB012817D10098D2
:10506000B0B10C494FF080500860BFF34F8FBFF3D1
:105070006F8F0DE048B141B12A4601F0D7FA0128FF
:1050800006D025B16FF0010402E0144600E034467A
:105090002046F8BD04ED00E0002806D0EFF30581BE
:1050A00009B100F0CEBD00F0BABD7047F8B51446A6
:1050B0004FF00005EFF3058212BB08B301B3A4B1B2
:1050C000D4E9023263B1502A1AD32269C2B16769A6
:1050D00000FB01F6B74213D3009501F020F907E079
:1050E00072B9226962B9626952B9002201F0F6F818
:1050F000050005D00CB1216800E0002100F054FF4C
:105100002846F8BDF8B51D466FF003026FF00206A1
:105110004FF00004EFF30583ABB100B3F9B1F5B97B
:105120000022134600926A4601F020FA012818D1A5
:105130000098B8B10C494FF080500860BFF34F8F12
:10514000BFF36F8F0EE050B149B100232A4601F042
:105150005DF9012806D025B16FF0010402E0144684
:1051600000E034462046F8BD04ED00E03EB5040002
:1051700001D0002903DA6FF0030001902BE04FF01B
:10518000FF300190EFF30580D0B1002502A8009018
:105190002B4601220295204601F036FC002201AB8D
:1051A00011462046009501F02FFC029898B10B495A
:1051B0004FF080500860BFF34F8FBFF36F8F0AE04E
:1051C00000230122204601F0ADFB002201AB114675
:1051D000204601F0A7FB01983EBD000004ED00E071
:1051E0002DE9F84F894605464FEA0206EFF30580A0
:1051F00010B16FF005041EE0002D02DA6FF0030419
:1052000019E05FEA897002D54FF0000800E0A84677
:105210000024924601F088FC8346E71E53466A4606
:105220004146002001F0F2FC012807D00EB36FF0D8
:1052300001040028F2D12046BDE8F88F00982C40E8
:1052400004435FEAC9700BD035EA0400F3D056B1CD
:1052500001F06AFCA0EB0B00504506D9002006E0E7
:105260002542E8D1F3E73C46E5E7AAEB0000824699
:10527000D4E73C46DDE700002DE9FF414FEA01039A
:105280004FF00005EFF30581039549BB40B380273C
:10529000182100244AB3166806B1344696691EB137
:1052A0003146761E382E02D21679F60703D000203A
:1052B00004B0BDE8F081566906B1B708D2F808C05D
:1052C000BCF1000F0DD0D5685C2D18D312693AB12E
:1052D00036B18DE806103A46214601F0F8FA0390FF
:1052E0000DE0D6685EB912694AB903AACDE9001289
:1052F000BAB2214601F0BEFA012800D00395039806
:10530000D6E700002DE9F041134C0F460546E6684C
:105310002068001D00F070FC681C07D137B12168BF
:10532000BDE8F0410D48091D00F0D2BC20683544AD
:10533000B5424560216805D2A06BBDE8F041091D6A
:1053400000F0AEBC606B091D00F0AAFCA06A8542AB
:1053500000D2A562BDE8F081AC0000205407002017
:105360002DE9F041054600F0BFFC2D4CA068401C23
:10537000A06020682B4F10B1606930B32BE025602E
:10538000A068012827D1002606EB860007EB8000E5
:1053900000F078FC761C382EF6D3234800F072FC1F
:1053A0002148143000F06EFC1F48283000F06AFCE1
:1053B0001D483C3000F066FC1B48503000F062FC99
:1053C000194860631430A06305E02068E96AC06A88
:1053D000884200D82560606A401C60626864E86AA0
:1053E0002169884200D9206100EB800007EB800032
:1053F000291D00F06DFC00F097FC606900280CD0BE
:105400002068E96AC06A884207D208494FF0805094
:105410000860BFF34F8FBFF36F8FBDE8F0810000CE
:10542000AC000020A40200200407002004ED00E0EE
:1054300038B500F059FC104C2068C8B90F4800F08E
:1054400021FC0E48143000F01DFC0C48E0601430C4
:1054500020610A4B0020F03B009003F15002102124
:105460000A2000F05CFF206010B105A100F09CFD57
:10547000BDE8384000F058BCE80000205808002083
:10548000546D72510000000030B4026C0B46002ACB
:105490000BD0C1681144C1608468A14201D3016886
:1054A000C16030BC1846FBF757B830BC70472DE9D7
:1054B000F041856B174604460026026C82B1C7B1E5
:1054C000E068FBF749F8E168206C091AE16022689E
:1054D000914202D2A168081AE060022F16D017E0AC
:1054E0002068A8B9A06801F0D7FB06460020A0609C
:1054F0000EE06068FBF730F8216C6068084460607B
:10550000A168884204D32068606001E005B16D1E87
:105510006D1CA5633046BDE8F08110B5044690F8D7
:10552000590058B101280CD002280FD0502080F328
:105530001188BFF34F8FBFF36F8FFEE7206B00F032
:1055400007FC2046BDE8104000F002BC10BD000082
:1055500009480021026902B101210268D26A0AB138
:1055600000207047054A1268012AF9D80029F7D1AE
:10557000816AC068081A7047AC000020A4020020AD
:1055800010484FF42051420706D0C01D0D4920F0AD
:105590000700411AC1F520510B4A00230144C2E91A
:1055A00000030839183A21F0070111604B600B60C5
:1055B0000B1AC0E9001393604FF000405360506134
:1055C00070470000380F0020180100201F4C204EAB
:1055D00012E000BF00F088FBF068C568281D00F0ED
:1055E0000BFBA068401EA0606068401E606000F079
:1055F0009BFB2846FFF791FF60680028EAD1154819
:105600000068012807D914494FF080500860BFF3A3
:105610004F8FBFF36F8FFFF79BFF0228D7D300F0A8
:10562000B9FDA06AE168884207D2502080F3118852
:10563000BFF34F8FBFF36F8FFEE7FFF789FF02289D
:1056400001D300F0DBFB01F0A3FBC0E7AC000020BE
:1056500040070020A402002004ED00E070B51D46C4
:10566000049C51B1C4F80020C4E90F010121204677
:1056700000F088FE84F84C5070BD2460F4E7000010
:105680002DE9F05F8846DDE90B94154683469100CD
:105690009A460A9EA522206BFAF7A3FF6FF003013A
:1056A000206B01EB8501084420F00707780707D03D
:1056B000502080F31188BFF34F8FBFF36F8FFEE749
:1056C0000025B8F1000F0FD05FF00000221818F885
:1056D000001082F8341018F8001011B1401C102886
:1056E000F4D384F8435001E084F83450382E00D3CA
:1056F0003726E662C4E91365201D00F0CEFA04F1F6
:10570000180000F0CAFA2461C6F138006462A06192
:10571000656584F8585052465946384600F05AFAA2
:105720002060B9F1000F01D0C9F80040BDE8F09F3A
:1057300030B5114900E011460A688242FBD34B683C
:105740005C18844203D140681844486008464368A6
:105750001C18944209D1084C183C2468A24209D074
:1057600052681A4442600A6812680260814200D09E
:10577000086030BD0460F9E71801002070B500240E
:1057800041600B4D0061914206D8D11A8269914265
:1057900006D2011D286907E09A4203D2994201D33B
:1057A000012403E0011DE86800F07AFA204670BD8C
:1057B000E800002010B5044600F096FAA06B28B16E
:1057C0005FF0000400F0B0FA204610BD0124F9E7B4
:1057D00030B589B03C4D6EE00498002806DADDE96A
:1057E0000601059A90470498002864DB069C6069CE
:1057F00010B1201D00F000FA03A800F0D7F802460F
:1058000004980A2857D2DFE800F00505052D334A31
:1058100005052D3394F8280040F0010084F8280095
:105820000599A069059B01442046FFF7A7FF68B3CF
:10583000216A2046884794F8280040073BD500207D
:1058400000900598A169002342181946204601F0EE
:1058500031FBD8B9502080F31188BFF34F8FBFF3CD
:105860006F8FFEE714F8280F20F00100207022E06F
:1058700094F8280040F0010084F828000598A06101
:1058800028B1811813462046FFF778FF13E0502017
:1058900080F31188BFF34F8FBFF36F8FFEE794F84B
:1058A0002800810703D4204600F052FA03E020F0DC
:1058B000010084F82800002204A9286800F0B6FE40
:1058C000002889D109B030BDE80000202DE9FC4155
:1058D0000F46054600F05EFC01A800F067F804469C
:1058E000019818B101F054FABDE8FC81254EAFB122
:1058F00030690068D0B30027291B3A46306800F0B1
:1059000067FB01F045FA0028EED11F494FF08050A7
:105910000860BFF34F8FBFF36F8FE5E7A542EBD869
:1059200001F036FAF0682746C068C468201D00F010
:1059300063F994F82800410719D5A0692B4641194D
:105940003A462046FFF71AFFA8B100200346014659
:1059500000902A46204601F0ADFA60B9502080F34D
:105960001188BFF34F8FBFF36F8FFEE707E020F082
:10597000010084F82800216A20468847B4E70127FF
:10598000BAE70000E800002004ED00E00648416BA3
:10599000096829B1416BC968C96849688162704763
:1059A0004FF0FF31FAE70000AC00002070B505466B
:1059B00001F0BAF8064E0446B068844203D200F003
:1059C00009F8012000E0002028602046B46070BD86
:1059D000E8000020F8B5194D20E0C068C4680668EA
:1059E000201D00F009F9216A2046884794F8280014
:1059F000400713D5A0693044B04206D924616060E5
:105A0000211DE86800F04CF908E00020034601463B
:105A100000903246204601F04DFA38B1E86801683E
:105A20000029DAD12969C5E90310F8BD502080F3B7
:105A30001188BFF34F8FBFF36F8FFEE7E8000020A0
:105A400008484068401C4FF0500080F3118804D093
:105A5000BFF34F8FBFF36F8FFEE7BFF34F8FBFF3DF
:105A60006F8FFEE720010020074CE068016841B11C
:105A7000C0680021D0F80000FFF728FFFFF7A8FE5C
:105A8000F3E701210020F7E7E80000202DE9F041CD
:105A9000044600F029F994F9455004F1240609E080
:105AA000606A48B1304601F037F908B100F0E0FA19
:105AB0006D1E6DB2002DF3DC4FF0FF3684F84560AB
:105AC00000F032F900F010F994F9445004F1100795
:105AD00009E0206948B1384601F01EF908B100F02C
